:020000040800F2
:1000000000000220090C0008590A00085F0A0008D5
:10001000650A00086B0A0008710A00080000000069
:10002000000000000000000000000000770A000847
:10003000850A000800000000930A0008A10A0008D1
:10004000590C0008590C0008590C0008590C0008FC
:10005000590C0008590C0008590C0008590C0008EC
:10006000590C0008590C0008590C0008590C0008DC
:10007000590C0008590C0008590C0008590C0008CC
:10008000590C0008590C0008590C0008590C0008BC
:10009000590C0008590C0008590C0008590C0008AC
:1000A000590C0008590C0008590C0008590C00089C
:1000B000590C0008590C0008590C0008AD0A00083A
:1000C000C10A0008590C0008590C0008590C000816
:1000D000590C0008590C0008590C0008590C00086C
:1000E000590C0008590C0008590C0008590C00085C
:1000F000590C0008590C0008590C0008590C00084C
:10010000590C0008590C0008590C0008590C00083B
:10011000590C0008590C0008590C0008590C00082B
:10012000590C0008590C0008590C0008590C00081B
:10013000590C0008590C0008590C0008590C00080B
:10014000590C0008590C0008590C0008590C0008FB
:10015000590C0008590C0008590C0008590C0008EB
:10016000590C0008590C0008590C0008590C0008DB
:10017000590C0008590C0008590C00080000000038
:08018000590C0008590C00089D
:1001900010B5054C237833B9044B13B10448AFF3C1
:1001A00000800123237010BD7000002000000000BB
:1001B0002849000808B5034B1BB103490348AFF3B6
:1001C000008008BD000000007400002028490008DD
:1001D00001F0FF01102A2BDB10F0070F08D010F8F8
:1001E000013B013A8B422DD010F0070F42B3F6D1FC
:1001F000F0B441EA012141EA014122F007047FF015
:1002000000070023F0E80256083C85EA010586EA6B
:10021000010685FA47F5A3FA87F586FA47F6A5FAA7
:1002200087F68EB9EED1F0BC01F0FF0102F00702B3
:1002300032B110F8013B013A83EA010313B1F8D15E
:100240000020704701387047002D06BF354603383F
:10025000073815F0010F07D1013015F4807F02BF78
:10026000013015F4C03F0130F0BC0138704700BFC9
:1002700053B94AB9002908BF00281CBF4FF0FF310D
:100280004FF0FF3000F074B9ADF1080C6DE904CE09
:1002900000F006F8DDF804E0DDE9022304B0704761
:1002A0002DE9F047089D04468E46002B4DD18A4229
:1002B000944669D9B2FA82F252B101FA02F3C2F15C
:1002C000200120FA01F10CFA02FC41EA030E9440ED
:1002D0004FEA1C48210CBEFBF8F61FFA8CF708FB0E
:1002E00016E341EA034306FB07F199420AD91CEBE6
:1002F000030306F1FF3080F01F81994240F21C8118
:10030000023E63445B1AA4B2B3FBF8F008FB10335F
:1003100044EA034400FB07F7A7420AD91CEB040494
:1003200000F1FF3380F00A81A74240F20781644464
:10033000023840EA0640E41B00261DB1D4400023E9
:10034000C5E900433146BDE8F0878B4209D9002D4D
:1003500000F0EF800026C5E9000130463146BDE8D7
:10036000F087B3FA83F6002E4AD18B4202D3824241
:1003700000F2F980841A61EB030301209E46002DF0
:10038000E0D0C5E9004EDDE702B9FFDEB2FA82F245
:10039000002A40F09280A1EB0C014FEA1C471FFAA3
:1003A0008CFE0126200CB1FBF7F307FB131140EA8A
:1003B00001410EFB03F0884208D91CEB010103F157
:1003C000FF3802D2884200F2CB804346091AA4B219
:1003D000B1FBF7F007FB101144EA01440EFB00FEED
:1003E000A64508D91CEB040400F1FF3102D2A64552
:1003F00000F2BB800846A4EB0E0440EA03409CE7F1
:10040000C6F12007B34022FA07FC4CEA030C20FA9D
:1004100007F401FA06F31C43F9404FEA1C4900FABD
:1004200006F3B1FBF9F8200C1FFA8CFE09FB18113A
:1004300040EA014108FB0EF0884202FA06F20BD9AD
:100440001CEB010108F1FF3A80F08880884240F2FD
:100450008580A8F102086144091AA4B2B1FBF9F041
:1004600009FB101144EA014100FB0EFE8E4508D93C
:100470001CEB010100F1FF346CD28E456AD90238C1
:10048000614440EA0840A0FB0294A1EB0E01A142A6
:10049000C846A64656D353D05DB1B3EB080261EB14
:1004A0000E0101FA07F722FA06F3F1401F43C5E9EE
:1004B000007100263146BDE8F087C2F12003D84024
:1004C0000CFA02FC21FA03F3914001434FEA1C4766
:1004D0001FFA8CFEB3FBF7F007FB10360B0C43EA58
:1004E000064300FB0EF69E4204FA02F408D91CEB08
:1004F000030300F1FF382FD29E422DD90238634406
:100500009B1B89B2B3FBF7F607FB163341EA0341A5
:1005100006FB0EF38B4208D91CEB010106F1FF38F4
:1005200016D28B4214D9023E6144C91A46EA0046EB
:1005300038E72E46284605E70646E3E61846F8E67D
:100540004B45A9D2B9EB020864EB0C0E0138A3E7C6
:100550004646EAE7204694E74046D1E7D0467BE7A7
:10056000023B614432E7304609E76444023842E71F
:10057000704700BF80B483B000AF78604FF0604335
:10058000D3F8803E03F00103002B13D04FF06043FB
:10059000D3F8003E03F00103002B0BD000E000BFB6
:1005A0004FF060431B68002BF9D04FF060437A682E
:1005B000D2B21A707B6818460C37BD465DF8047BD2
:1005C000704780B483B000AF0346FB71FB791B0911
:1005D000DBB21A46920013445B00DAB2FB7903F0F7
:1005E0000F03DBB21344DBB218460C37BD465DF88F
:1005F000047B704780B582B000AF78607B681B6871
:10060000224A93423ED1224B1B781846FFF7D9FF6E
:1006100003461A461F4B9A701D4B5B781846FFF72E
:10062000D0FF03461A461B4B5A70194B9B7818464D
:10063000FFF7C7FF03461A46164B1A70144BDB78B8
:100640001846FFF7BEFF03461A46124BDA70104BEE
:100650001B791846FFF7B5FF03461A460D4B1A7172
:100660000B4B5B791846FFF7ACFF03461A46094B64
:100670005A71074B9B791846FFF7A3FF03461A46AA
:10068000044B9A7100BF0837BD4680BD005400403E
:10069000E8000020E000002080B582B002AF072310
:1006A0000193054B009301230022D021034800F061
:1006B000A7FF00BFBD4680BDE80000208C000020E1
:1006C000B0B584B004AF00F0C9FA00F02BF800F028
:1006D000C1F800F091F8FFF7DFFF104B1B781846C8
:1006E0000E4B5B781C460D4B9B781D460B4B1B79C4
:1006F0001A460A4B5B791946084B9B7903F5FA6356
:100700000293019100922B4622460146044803F0D1
:100710007DF94FF47A7000F013FBDCE7E000002075
:100720004049000880B594B000AF07F120033022A3
:100730000021184603F062F907F10C0300221A6049
:100740005A609A60DA601A610023BB60284B1B6C08
:10075000274A43F080531364254B1B6C03F08053EE
:10076000BB60BB6800237B60224B1B68214A43F4BB
:10077000804313601F4B1B6803F480437B607B68DE
:1007800002233B620123FB6210233B630223BB6312
:100790000023FB6308233B64A8237B640223BB6420
:1007A0000423FB6407F12003184602F0B9FC03465A
:1007B000002B01D000F0CAF80F23FB6002233B613D
:1007C00000237B614FF4A053BB614FF48053FB6166
:1007D00007F10C030521184602F01AFF0346002B0F
:1007E00001D000F0B3F800BF5037BD4680BD00BF58
:1007F000003802400070004080B500AF124B134A31
:100800001A60114B124A5A600F4B00229A600E4B2D
:100810000022DA600C4B4FF480421A610A4B00222E
:100820005A61094B00229A61074B0022DA61064B9C
:1008300000221A62044800F09FFD0346002B01D0FD
:1008400000F084F800BF80BD8C0000200054004000
:10085000A086010080B58AB000AF07F11403002222
:100860001A605A609A60DA601A6100233B61274B74
:100870001B6B264A43F080031363244B1B6B03F06E
:1008800080033B613B690023FB60204B1B6B1F4ACD
:1008900043F0080313631D4B1B6B03F00803FB605D
:1008A000FB680023BB60194B1B6B184A43F0010324
:1008B0001363164B1B6B03F00103BB60BB68002383
:1008C0007B60124B1B6B114A43F0020313630F4B07
:1008D0001B6B03F002037B607B6800224FF48051A6
:1008E0000B4800F02FFD4FF480537B610123BB6167
:1008F0000123FB6102233B6207F1140319460448FC
:1009000000F084FB00BF2837BD4680BD00380240A0
:10091000000C024080B586B000AFF860B9607A6024
:1009200000237B6109E0BB685A1CBA601B7818463B
:10093000FFF720FE7B6901337B617A697B689A420D
:10094000F1DB7B6818461837BD4680BD80B400AF28
:1009500072B600BFFEE7000080B483B000AF002392
:100960007B60104B5B6C0F4A43F4804353640D4B28
:100970005B6C03F480437B607B6800233B60094B26
:100980001B6C084A43F080531364064B1B6C03F046
:1009900080533B603B6800BF0C37BD465DF8047B6D
:1009A000704700BF0038024080B58AB000AF786061
:1009B00007F1140300221A605A609A60DA601A6123
:1009C0007B681B68214A93423BD100233B61204B4B
:1009D0001B6B1F4A43F0020313631D4B1B6B03F099
:1009E00002033B613B69C0237B611223BB6100238F
:1009F000FB6103233B6204237B6207F11403194666
:100A0000144800F003FB0023FB60114B1B6C104AE1
:100A100043F4001313640E4B1B6C03F40013FB60D0
:100A2000FB68002201211F2000F089FA1F2000F03E
:100A3000A2FA00220121202000F081FA202000F0FB
:100A40009AFA00BF2837BD4680BD00BF0054004061
:100A5000003802400004024080B400AFFEE780B4DA
:100A600000AFFEE780B400AFFEE780B400AFFEE762
:100A700080B400AFFEE780B400AF00BFBD465DF8B4
:100A8000047B704780B400AF00BFBD465DF8047BB7
:100A9000704780B400AF00BFBD465DF8047B70476F
:100AA00080B500AF00F02CF900BF80BD80B500AF6D
:100AB000024800F063FE00BF80BD00BF8C00002034
:100AC00080B500AF024800F0CAFF00BF80BD00BF84
:100AD0008C00002080B586B000AFF860B9607A6005
:100AE00000237B610AE0AFF300800146BB685A1C1B
:100AF000BA60CAB21A707B6901337B617A697B681C
:100B00009A42F0DB7B6818461837BD4680BD80B43A
:100B100083B000AF78604FF0FF3318460C37BD4606
:100B20005DF8047B704780B483B000AF78603960B3
:100B30003B684FF400525A60002318460C37BD46FC
:100B40005DF8047B704780B483B000AF7860012308
:100B500018460C37BD465DF8047B704780B485B0FD
:100B600000AFF860B9607A60002318461437BD46BC
:100B70005DF8047B7047000080B586B000AF7860F8
:100B8000144A154BD31A7B617B693B61134B1B687D
:100B9000002B02D1114B124A1A60104B1A687B6865
:100BA00013443A699A4207D202F0FEFE03460C2231
:100BB0001A604FF0FF3309E0084B1B68FB60074BDE
:100BC0001A687B681344054A1360FB681846183797
:100BD000BD4680BD0000022000040000F00000209F
:100BE0000801002080B400AF064BD3F88830054AD6
:100BF00043F47003C2F8883000BFBD465DF8047B43
:100C0000704700BF00ED00E0DFF834D00D480E491A
:100C10000E4A002302E0D458C4500433C4188C4256
:100C2000F9D30B4A0B4C002301E013600432A242BB
:100C3000FBD3FFF7D7FF02F0BDFEFFF741FD704782
:100C4000000002200000002070000020404A000840
:100C50007000002008010020FEE7000080B500AF12
:100C60000E4B1B680D4A43F4007313600B4B1B685B
:100C70000A4A43F480631360084B1B68074A43F435
:100C800080731360032000F04FF9002000F008F893
:100C9000FFF762FE0023184680BD00BF003C024003
:100CA00080B582B000AF7860124B1A68124B1B7887
:100CB00019464FF47A73B3FBF1F3B2FBF3F3184622
:100CC00000F067F90346002B01D001230EE07B689A
:100CD0000F2B0AD8002279684FF0FF3000F02FF96F
:100CE000064A7B681360002300E00123184608379A
:100CF000BD4680BD00000020080000200400002048
:100D000080B400AF064B1B781A46064B1B68134491
:100D1000044A136000BFBD465DF8047B704700BF06
:100D200008000020F400002080B400AF034B1B68D3
:100D30001846BD465DF8047B704700BFF4000020F4
:100D400080B584B000AF7860FFF7EEFFB8607B68D5
:100D5000FB60FB68B3F1FF3F05D00A4B1B781A46D6
:100D6000FB681344FB6000BFFFF7DEFF0246BB6871
:100D7000D31AFA689A42F7D800BF00BF1037BD46B1
:100D800080BD00BF0800002080B485B000AF78604F
:100D90007B6803F00703FB600C4BDB68BB60BA6841
:100DA0004FF6FF031340BB60FB681A02BB68134396
:100DB00043F0BF6343F40033BB60044ABB68D360B5
:100DC00000BF1437BD465DF8047B704700ED00E0BE
:100DD00080B400AF044BDB681B0A03F0070318461E
:100DE000BD465DF8047B704700ED00E080B483B041
:100DF00000AF0346FB7197F90730002B0BDBFB7943
:100E000003F01F02074997F907305B09012000FA38
:100E100002F241F8232000BF0C37BD465DF8047B89
:100E2000704700BF00E100E080B483B000AF03462C
:100E30003960FB7197F90730002B0ADB3B68DAB2A7
:100E40000C4997F907301201D2B20B4483F8002302
:100E50000AE03B68DAB20849FB7903F00F03043B70
:100E60001201D2B20B441A7600BF0C37BD465DF8B2
:100E7000047B704700E100E000ED00E080B489B041
:100E800000AFF860B9607A60FB6803F00703FB61AC
:100E9000FB69C3F10703042B28BF0423BB61FB6973
:100EA0000433062B02D9FB69033B00E000237B617E
:100EB0004FF0FF32BB6902FA03F3DA43BB681A4012
:100EC0007B699A404FF0FF317B6901FA03F3D94304
:100ED0007B680B40134318462437BD465DF8047BFE
:100EE0007047000080B582B000AF78607B68013B3E
:100EF000B3F1807F01D301230FE00A4A7B68013BF5
:100F000053600F214FF0FF30FFF78EFF054B00229B
:100F10009A60044B07221A60002318460837BD4622
:100F200080BD00BF10E000E080B582B000AF786007
:100F30007868FFF729FF00BF0837BD4680BD80B540
:100F400086B000AF0346B9607A60FB7300237B6113
:100F5000FFF73EFF78617A68B9687869FFF78EFF1E
:100F6000024697F90F3011461846FFF75DFF00BFA4
:100F70001837BD4680BD80B582B000AF0346FB7117
:100F800097F907301846FFF731FF00BF0837BD4615
:100F900080BD80B582B000AF78607868FFF7A2FFAF
:100FA000034618460837BD4680BD80B483B000AF05
:100FB00078607B6893F83530DBB2022B04D07B6815
:100FC00080225A6501230CE07B68052283F83520D6
:100FD0007B681B681A687B681B6822F001021A6034
:100FE000002318460C37BD465DF8047B704780B47B
:100FF00083B000AF78607B6893F83530DBB2184679
:101000000C37BD465DF8047B7047000080B489B0A2
:1010100000AF7860396000237B6100233B610023CF
:10102000BB610023FB616BE10122FB6902FA03F360
:101030007B613B681B687A6913403B613A697B6955
:101040009A4240F05A813B685B6803F00303012B2E
:1010500005D03B685B6803F00303022B30D17B684B
:101060009B68BB61FB695B00032202FA03F3DB436D
:10107000BA691340BB613B68DA68FB695B0002FA3E
:1010800003F3BA691343BB617B68BA699A607B68F2
:101090005B68BB610122FB6902FA03F3DB43BA69B7
:1010A0001340BB613B685B681B0903F00102FB69ED
:1010B00002FA03F3BA691343BB617B68BA695A60E9
:1010C0003B685B6803F00303032B17D07B68DB6886
:1010D000BB61FB695B00032202FA03F3DB43BA69DD
:1010E0001340BB613B689A68FB695B0002FA03F33B
:1010F000BA691343BB617B68BA69DA603B685B68B5
:1011000003F00303022B23D1FB69DA087B68083262
:1011100053F82230BB61FB6903F007039B000F22E9
:1011200002FA03F3DB43BA691340BB613B681A69F7
:10113000FB6903F007039B0002FA03F3BA69134348
:10114000BB61FB69DA087B680832B96943F8221091
:101150007B681B68BB61FB695B00032202FA03F337
:10116000DB43BA691340BB613B685B6803F0030271
:10117000FB695B0002FA03F3BA691343BB617B6846
:10118000BA691A603B685B6803F44033002B00F0D7
:10119000B4800023FB60604B5B6C5F4A43F4804388
:1011A00053645D4B5B6C03F48043FB60FB685B4AFC
:1011B000FB699B08023352F82330BB61FB6903F0E3
:1011C00003039B000F2202FA03F3DB43BA691340C7
:1011D000BB617B68524A93422BD07B68514A934251
:1011E00025D07B68504A93421FD07B684F4A934278
:1011F00019D07B684E4A934213D07B684D4A934284
:101200000DD07B684C4A934207D07B684B4A93428F
:1012100001D107230EE008230CE006230AE0052392
:1012200008E0042306E0032304E0022302E0012394
:1012300000E00023FA6902F0030292009340BA69C9
:101240001343BB613549FB699B080233BA6941F816
:1012500023203B4B9B68BB613B69DB43BA6913406E
:10126000BB613B685B6803F48013002B03D0BA6951
:101270003B691343BB61324ABB699360304BDB6807
:10128000BB613B69DB43BA691340BB613B685B6888
:1012900003F40013002B03D0BA693B691343BB610D
:1012A000274ABB69D360264B5B68BB613B69DB4364
:1012B000BA691340BB613B685B6803F40033002BE1
:1012C00003D0BA693B691343BB611D4ABB695360D4
:1012D0001B4B1B68BB613B69DB43BA691340BB61B5
:1012E0003B685B6803F48033002B03D0BA693B6929
:1012F0001343BB61124ABB691360FB690133FB6195
:10130000FB690F2B7FF690AE00BF00BF2437BD46B0
:101310005DF8047B704700BF003802400038014090
:10132000000002400004024000080240000C02409D
:10133000001002400014024000180240001C02404D
:10134000003C014080B483B000AF78600B467B80E6
:1013500013467B707B78002B03D07A887B689A6178
:1013600003E07B881A047B689A6100BF0C37BD4696
:101370005DF8047B7047000080B584B000AF7860F2
:101380007B68002B01D101232BE17B6893F83D3072
:10139000DBB2002B06D17B68002283F83C20786802
:1013A000FFF702FB7B68242283F83D207B681B68E3
:1013B0001A687B681B6822F001021A607B681B6850
:1013C0001A687B681B6842F400421A607B681B68DD
:1013D0001A687B681B6822F400421A6002F0D0FA97
:1013E000F8607B685B68814A934207D8FB68804A53
:1013F000934294BF01230023DBB206E0FB687D4AE1
:10140000934294BF01230023DBB2002B01D00123C0
:10141000E7E0FB68784AA2FB03239B0CBB607B6878
:101420001B685B6823F03F017B681B68BA680A434E
:101430005A607B681B681B6A23F03F017B685B680E
:101440006A4A934202D8BB68013309E0BB684FF493
:10145000967202FB03F3694AA2FB03239B09013343
:101460007A6812680B4313627B681B68DB6923F49C
:101470004F4222F0FF027B685B685C498B4219D8BF
:10148000FB68591E7B685B685B00B1FBF3F3591C7A
:1014900040F6FC730B40002B0AD0FB68591E7B689A
:1014A0005B685B00B1FBF3F30133C3F30B0351E063
:1014B00004234FE07B689B68002B11D1FB68581E0A
:1014C0007B6859680B465B000B44B0FBF3F30133B8
:1014D000C3F30B03002B0CBF01230023DBB212E08C
:1014E000FB68581E7B6859680B469B000B449900AB
:1014F0000B44B0FBF3F30133C3F30B03002B0CBF1E
:1015000001230023DBB2002B01D0012322E07B6802
:101510009B68002B0ED1FB68581E7B6859680B46F0
:101520005B000B44B0FBF3F30133C3F30B0343F451
:1015300000430FE0FB68581E7B6859680B469B0010
:101540000B4499000B44B0FBF3F30133C3F30B03DB
:1015500043F44043796809681343CB617B681B6897
:101560001B6823F0C0017B68DA697B681B6A1A4339
:101570007B681B680A431A607B681B689B6823F4BE
:10158000034323F0FF037A6811697A68D268114334
:101590007A6812680B4393607B681B68DB6823F0F2
:1015A000FF017B685A697B689B691A437B681B68EB
:1015B0000A43DA607B681B681A687B681B6842F024
:1015C00001021A607B6800221A647B68202283F87B
:1015D0003D207B6800221A637B68002283F83E204E
:1015E000002318461037BD4680BD00BFA08601000D
:1015F0007F841E00FF083D0083DE1B43D34D621035
:1016000080B487B000AFF860084611461A4603461A
:101610007B810B463B811346FB8000237B61FB688B
:1016200093F83D30DBB2202B40F09A80504B1B6882
:10163000DB08504AA2FB03231A0A13469B001344FB
:101640009A0013447B617B69013B7B617B69002BC2
:1016500016D1FB6800221A63FB68202283F83D2024
:10166000FB68002283F83E20FB681B6C43F02002DD
:10167000FB681A64FB68002283F83C20012370E0B9
:10168000FB681B689B6903F00203022BDBD0FB683D
:1016900093F83C30012B01D1022362E0FB68012268
:1016A00083F83C20FB681B681B6803F00103012BD7
:1016B00007D0FB681B681A68FB681B6842F00102D0
:1016C0001A60FB681B681A68FB681B6822F40062DA
:1016D0001A60FB68222283F83D20FB68402283F8D1
:1016E0003E20FB6800221A64FB683A6A5A62FB6873
:1016F000BA8C5A85FB685B8D9AB2FB681A85FB68C9
:101700001D4ADA627A89FB685A643A89FB689A64EE
:10171000FA88FB68DA64FB6800221A65FB681B68BC
:101720001A68FB681B6842F480621A60FB681B68D9
:101730001A68FB681B6842F480721A60FB6800221A
:1017400083F83C20FB681B8D002B07D0FB681B68CF
:101750005A68FB681B6842F4E0625A60002300E0AC
:10176000022318461C37BD465DF8047B704700BF56
:101770000000002089B5F8140000FFFF80B588B094
:1017800000AF78600023BB617B681B685B687B618E
:101790007B68DB6A3B617B6893F83E30FB737B6858
:1017A00093F83D30BB73FB7B102B03D0FB7B402BAE
:1017B00040F0C1807B681B689B69BB617B681B68CC
:1017C0005B69FB61FB6903F00103002B0DD13B69F1
:1017D000B3F52A0F03D03B69B3F12A4F01D101239E
:1017E00000E00023012B00F03281FB6903F00103CC
:1017F000002B0CD07B695B0A03F00103002B06D0A1
:10180000786801F071FC786800F079FD92E0FB697E
:10181000DB0803F00103002B09D07B695B0A03F0AE
:101820000103002B03D0786800F0EFFD82E0FB6934
:101830005B0803F00103002B09D07B695B0A03F00E
:101840000103002B03D0786800F009FE72E0BB6949
:101850009B0803F00103002B3BD07B681B685B688F
:1018600003F40063B3F5006F00F0F380FB69DB095C
:1018700003F00103002B0FD07B699B0A03F00103E7
:10188000002B09D0FB699B0803F00103002B03D157
:10189000786800F0E9F94DE0FB699B0803F001036B
:1018A000002B00F0D6807B695B0A03F00103002B5C
:1018B00000F0CF80BB7B212B03D1786800F070FA59
:1018C000C7E0FB7B402B40F0C480786800F0DEFA74
:1018D000BFE07B681B685B6803F40063B3F5006FCF
:1018E00000F0B780FB699B0903F00103002B0FD0C8
:1018F0007B699B0A03F00103002B09D0FB699B085D
:1019000003F00103002B03D1786800F053FB11E0D2
:10191000FB699B0803F00103002B00F09A807B69B0
:101920005B0A03F00103002B00F09380786800F05D
:10193000FCFB8EE08DE07B681B6C002B04D07B6889
:101940001B685B69FB6107E07B681B689B69BB6187
:101950007B681B685B69FB61FB695B0803F0010343
:10196000002B12D07B695B0A03F00103002B0CD023
:101970007B681B6C002B03D07B681B689B69BB6179
:10198000B969786800F0BAFF66E0FB691B0903F0EB
:101990000103002B09D07B695B0A03F00103002BD4
:1019A00003D0786800F0F4FF56E0BB7B212B02D017
:1019B000BB7B292B25D1FB69DB0903F00103002B3D
:1019C0000FD07B699B0A03F00103002B09D0FB6950
:1019D0009B0803F00103002B03D1786800F0D0FED0
:1019E00039E0FB699B0803F00103002B33D07B69CE
:1019F0005B0A03F00103002B2DD0786800F0FDFE98
:101A000029E0FB699B0903F00103002B0FD07B69E0
:101A10009B0A03F00103002B09D0FB699B0803F02C
:101A20000103002B03D1786800F008FF14E0FB6984
:101A30009B0803F00103002B0ED07B695B0A03F0C7
:101A40000103002B08D0786800F036FF04E000BFE7
:101A500002E000BF00E000BF2037BD4680BD80B57A
:101A60008AB000AF78607B681B685B693B627B680B
:101A70001B685B68FB6100237B627B6893F83E30E8
:101A8000FB763B6A1B0A03F00103002B0ED0FB69B7
:101A90001B0A03F00103002B08D07B6A43F001030B
:101AA0007B627B681B686FF480725A613B6A5B0AD9
:101AB00003F00103002B0ED0FB691B0A03F00103A6
:101AC000002B08D07B6A43F002037B627B681B68B3
:101AD0006FF400725A613B6A9B0A03F00103002B0A
:101AE0003FD0FB691B0A03F00103002B39D0FB7EBA
:101AF000BB767B685B8D9BB27B617B6893F83D30E6
:101B0000FB747B681B6BFB60BB7E202B12D17B6957
:101B1000002B0FD1FB7C212B08D0FB7C292B05D07F
:101B2000FB7C282B06D1FB68212B03D1786801F0C0
:101B30005FF816E07B681B686FF480625A617B6A0D
:101B400043F004037B62FB7E102B02D0FB7E402B14
:101B500007D17B681B681A687B681B6842F40072B7
:101B60001A603B6ADB0A03F00103002B0ED0FB690D
:101B70001B0A03F00103002B08D07B6A43F0080323
:101B80007B627B681B686FF400625A617B6A002B82
:101B900008D07B681A6C7B6A1A437B681A64786881
:101BA00001F096F800BF2837BD4680BD80B483B0F1
:101BB00000AF786000BF0C37BD465DF8047B70470E
:101BC00080B483B000AF786000BF0C37BD465DF8CD
:101BD000047B704780B483B000AF786000BF0C37DF
:101BE000BD465DF8047B704780B483B000AF786079
:101BF00000BF0C37BD465DF8047B704780B483B0EE
:101C000000AF78600B46FB7013463B8000BF0C377B
:101C1000BD465DF8047B704780B483B000AF786048
:101C200000BF0C37BD465DF8047B704780B483B0BD
:101C300000AF786000BF0C37BD465DF8047B70478D
:101C400080B483B000AF786000BF0C37BD465DF84C
:101C5000047B704780B483B000AF786000BF0C375E
:101C6000BD465DF8047B704780B584B000AF7860F6
:101C70007B6893F83D30FB737B6893F83E30BB7311
:101C80007B68DB6ABB607B681B8D002B50D1FB7BC4
:101C9000212B4DD1BB68082B1DD0BB68202B1AD03F
:101CA000BB6813F5803F16D07B681B685A687B6859
:101CB0001B6822F4E0625A607B6811221A637B6819
:101CC000002283F83E207B68202283F83D2078683C
:101CD000FFF76CFF60E07B681B685A687B681B68D5
:101CE00022F4E0625A607B681B681A687B681B6894
:101CF00042F400721A607B6800221A637B6820221B
:101D000083F83D207B6893F83E30DBB2402B07D14F
:101D10007B68002283F83E207868FFF787FF3BE06E
:101D20007B68002283F83E207868FFF73FFF33E0AE
:101D3000FB7B212B05D0BB7B402B2DD1FB7B222BAA
:101D40002AD17B685B8D9BB2002B08D17B681B6816
:101D50005A687B681B6822F480625A601CE07B68CA
:101D600093F83E30DBB2402B03D1786800F08EF858
:101D700012E07B685B6A1A787B681B681A617B6873
:101D80005B6A5A1C7B685A627B685B8D9BB2013B25
:101D90009AB27B685A85FFE700BF1037BD4680BD09
:101DA00080B584B000AF78607B68DB6AFB607B68DD
:101DB00093F83D30DBB2212B64D17B685B8D9BB205
:101DC000002B12D07B685B6A1A787B681B681A61EB
:101DD0007B685B6A5A1C7B685A627B685B8D9BB22E
:101DE000013B9AB27B685A854CE0FB68082B1DD0FA
:101DF000FB68202B1AD0FB6813F5803F16D07B6858
:101E00001B685A687B681B6822F4E0625A607B6832
:101E100011221A637B68002283F83E207B6820220F
:101E200083F83D207868FFF7C1FE2BE07B681B68D4
:101E30005A687B681B6822F4E0625A607B681B6802
:101E40001A687B681B6842F400721A607B68002283
:101E50001A637B68202283F83D207B6893F83E302C
:101E6000DBB2402B07D17B68002283F83E207868E4
:101E7000FFF7DCFE06E07B68002283F83E207868EE
:101E8000FFF794FE00BF1037BD4680BD80B584B01B
:101E900000AF78607B6893F83D30FB737B681B6D07
:101EA000002B1DD17B68DB6C012B0BD17B689B6CFD
:101EB000DAB27B681B681A617B681B6D9A1C7B68B1
:101EC0001A6573E07B689B6C9BB21B12DAB27B686D
:101ED0001B681A617B681B6D5A1C7B681A6565E07C
:101EE0007B681B6D012B0BD17B689B6CDAB27B6826
:101EF0001B681A617B681B6D5A1C7B681A6555E06C
:101F00007B681B6D022B51D1FB7B222B0DD17B6893
:101F10001B681A687B681B6842F480721A607B68D1
:101F20001B6D5A1C7B681A6540E07B685B8D9BB219
:101F3000002B15D0FB7B212B12D17B685B6A1A78B2
:101F40007B681B681A617B685B6A5A1C7B685A62F3
:101F50007B685B8D9BB2013B9AB27B685A8525E01A
:101F60007B685B8D9BB2002B20D1FB7B212B1DD18D
:101F70007B681B685A687B681B6822F4E0625A60C1
:101F80007B681B681A687B681B6842F400721A60E1
:101F90007B6800221A637B68202283F83D207B68DF
:101FA000002283F83E207868FFF740FE00BF10371C
:101FB000BD4680BD80B584B000AF78607B6893F883
:101FC0003D30DBB2222B40F0AC807B685B8D9BB256
:101FD000FB60FB68032B21D97B681B681A697B684F
:101FE0005B6AD2B21A707B685B6A5A1C7B685A6261
:101FF0007B685B8D9BB2013B9AB27B685A857B689C
:102000005B8D9BB2032B40F08C807B681B685A6809
:102010007B681B6822F480625A6082E07B68DB6A1E
:10202000022B75D0FB68012B02D0FB68002B6FD10F
:10203000786801F027F80346002B42D17B681B68C3
:102040001A687B681B6822F480621A607B681B68D0
:102050005A687B681B6822F4E0625A607B681B68E0
:102060001A697B685B6AD2B21A707B685B6A5A1C19
:102070007B685A627B685B8D9BB2013B9AB27B683E
:102080005A857B68202283F83D207B6893F83E3098
:10209000DBB2402B0AD17B68002283F83E207B68AC
:1020A00000221A637868FEF7A5FA3AE07B680022FE
:1020B00083F83E207B6812221A637868FFF780FD60
:1020C0002FE07B681B685A687B681B6822F4E0621B
:1020D0005A607B681B681A697B685B6AD2B21A70A7
:1020E0007B685B6A5A1C7B685A627B685B8D9BB21B
:1020F000013B9AB27B685A857B68202283F83D2099
:102100007B68002283F83E207868FFF799FD08E09D
:102110007B681B685A687B681B6822F480625A607F
:10212000FFE700BF1037BD4680BD80B584B000AF6B
:1021300078607B68DB6AFB607B685B8D9BB2042BFD
:102140001BD17B681B685A687B681B6822F480621D
:102150005A607B681B681A697B685B6AD2B21A7026
:102160007B685B6A5A1C7B685A627B685B8D9BB29A
:10217000013B9AB27B685A85BDE07B685B8D9BB260
:10218000032B29D17B681B685A687B681B6822F483
:1021900080625A60FB68042B0AD0FB68022B07D0D0
:1021A0007B681B681A687B681B6822F480621A606F
:1021B0007B681B681A697B685B6AD2B21A707B689D
:1021C0005B6A5A1C7B685A627B685B8D9BB2013BE1
:1021D0009AB27B685A858EE07B685B8D9BB2022B3E
:1021E00076D1FB68012B02D0FB68102B08D17B68ED
:1021F0001B681A687B681B6822F480621A6019E009
:10220000FB68042B02D0FB68022B08D17B681B689B
:102210001A687B681B6842F480621A600AE0FB68F7
:10222000102B07D07B681B681A687B681B6842F418
:1022300000721A607B681B681A697B685B6AD2B29D
:102240001A707B685B6A5A1C7B685A627B685B8D7C
:102250009BB2013B9AB27B685A857B681B681A69FE
:102260007B685B6AD2B21A707B685B6A5A1C7B68B7
:102270005A627B685B8D9BB2013B9AB27B685A8540
:102280007B681B685A687B681B6822F440725A603E
:102290007B68202283F83D207B6893F83E30DBB2D8
:1022A000402B0AD17B68002283F83E207B68002205
:1022B0001A637868FEF79EF91DE07B68002283F8B8
:1022C0003E207B6812221A637868FFF779FC12E0DF
:1022D0007B681B681A697B685B6AD2B21A707B687C
:1022E0005B6A5A1C7B685A627B685B8D9BB2013BC0
:1022F0009AB27B685A8500BF1037BD4680BD80B456
:1023000083B000AF78607B6893F83E30DBB2402B3F
:1023100017D17B681B6D002B09D17B685B6CDBB22E
:102320001A467B681B6802F0FE021A6167E07B6850
:102330005B6CDBB243F00103DAB27B681B681A61A5
:102340005DE07B681B69B3F5804F33D17B6893F800
:102350003D30DBB2212B09D17B685B6CDBB21A46C6
:102360007B681B6802F0FE021A6108E07B685B6C08
:10237000DBB243F00103DAB27B681B681A617B6849
:102380005B6B002B04D07B685B6BDB6B002B08D195
:102390007B689B6B002B32D07B689B6BDB6B002BCD
:1023A0002DD07B681B685A687B681B6842F400620A
:1023B0005A6024E07B681B6D002B0ED17B685B6C40
:1023C0009BB2DB11DBB203F00603DBB263F00F0359
:1023D000DAB27B681B681A6111E07B681B6D012B08
:1023E0000DD17B685B6C9BB2DB11DBB203F00603A3
:1023F000DBB263F00E03DAB27B681B681A6100BFC0
:102400000C37BD465DF8047B704780B483B000AFE5
:1024100078607B685B6CDAB27B681B681A617B68EA
:102420005B6B002B04D07B685B6BDB6B002B08D1F4
:102430007B689B6B002B0CD07B689B6BDB6B002B52
:1024400007D07B681B685A687B681B6842F400628F
:102450005A6000BF0C37BD465DF8047B704780B4FE
:1024600091B000AF78607B6893F83E3087F83F30DA
:102470007B68DB6ABB637B681B6B7B637B6893F861
:102480003D30DBB2222B40F069817B681B6D002B55
:102490000FD197F83F30402B0BD100233B637B6873
:1024A0001B685B693B637B681B689B693B633B6B99
:1024B00060E17B681B6D002B1DD17B681B69B3F548
:1024C000404F18D10023FB627B681B685B69FB628D
:1024D0007B681B689B69FB62FB6A7B681B681A68E8
:1024E0007B681B6842F480721A607B681B6D5A1C03
:1024F0007B681A653EE17B685B8D9BB2002B13D134
:102500000023BB627B681B685B69BB627B681B68DE
:102510009B69BB62BB6A7B681B681A687B681B6827
:1025200042F400721A6015E17B685B8D9BB2012B4F
:1025300040F08A80BB6B13F5803F37D17B681B6806
:102540001A687B681B6822F480621A607B681B68CB
:102550005B6803F40063B3F5006F13D17B681B68FD
:102560001A687B681B6822F480621A6000237B6211
:102570007B681B685B697B627B681B689B697B620D
:102580007B6AE7E000233B627B681B685B693B6218
:102590007B681B689B693B623B6A7B681B681A68A7
:1025A0007B681B6842F400721A60D3E0BB6B082B97
:1025B0002ED0BB6B202B2BD07B6B122B02D1BB6B95
:1025C000012B25D1BB6B042B0ED0BB6B022B0BD088
:1025D000BB6B102B08D07B681B681A687B681B6874
:1025E00022F480621A6007E07B681B681A687B68C7
:1025F0001B6842F480621A600023FB617B681B68E1
:102600005B69FB617B681B689B69FB61FB69A1E0FF
:102610007B681B681A687B681B6822F480621A60FA
:102620000023BB617B681B685B69BB617B681B68BF
:102630009B69BB61BB697B681B681A687B681B6808
:1026400042F400721A6085E07B685B8D9BB2022BBE
:102650004DD1BB6B042B16D0BB6B022B13D0BB6BC5
:10266000102B10D07B681B681A687B681B6822F4EB
:1026700080621A607B681B681A687B681B6842F47A
:1026800000621A6007E07B681B681A687B681B6839
:1026900042F480621A607B681B685B6803F4006325
:1026A000B3F5006F17D1BB6B13F5803F0BD0BB6B3D
:1026B000012B08D0BB6B082B05D0BB6B102B02D0B5
:1026C000BB6B202B07D17B681B685A687B681B6833
:1026D00042F480525A6000237B617B681B685B690F
:1026E0007B617B681B689B697B617B6932E07B68EF
:1026F0001B681A687B681B6842F480621A607B68FA
:102700001B685B6803F40063B3F5006F17D1BB6B04
:1027100013F5803F0BD0BB6B012B08D0BB6B082B94
:1027200005D0BB6B102B02D0BB6B202B07D17B6875
:102730001B685A687B681B6842F480525A60002309
:102740003B617B681B685B693B617B681B689B69BD
:102750003B613B697B6800221A650BE00023FB604C
:102760007B681B685B69FB607B681B689B69FB601F
:10277000FB68FFE700BF4437BD465DF8047B704748
:1027800080B584B000AF78607B6893F83D30FB7310
:102790007B685B8D9BB2002B2BD07B685B6A1A78C1
:1027A0007B681B681A617B685B6A5A1C7B685A628B
:1027B0007B685B8D9BB2013B9AB27B685A857B68D4
:1027C0005B8D9BB2002B14D1FB7B292B11D17B6835
:1027D0001B685A687B681B6822F480625A607B68B9
:1027E00021221A637B68282283F83D207868FFF74E
:1027F000F1F900BF1037BD4680BD80B483B000AF93
:1028000078607B685B8D9BB2002B11D07B685B6A24
:102810001A787B681B681A617B685B6A5A1C7B6844
:102820005A627B685B8D9BB2013B9AB27B685A858A
:1028300000BF0C37BD465DF8047B704780B584B09F
:1028400000AF78607B6893F83D30FB737B685B8DED
:102850009BB2002B2CD07B681B681A697B685B6A73
:10286000D2B21A707B685B6A5A1C7B685A627B68BA
:102870005B8D9BB2013B9AB27B685A857B685B8D0E
:102880009BB2002B14D1FB7B2A2B11D17B681B68D8
:102890005A687B681B6822F480625A607B68222237
:1028A0001A637B68282283F83D207868FFF79CF93B
:1028B00000BF1037BD4680BD80B483B000AF7860E4
:1028C0007B685B8D9BB2002B12D07B681B681A69FA
:1028D0007B685B6AD2B21A707B685B6A5A1C7B6841
:1028E0005A627B685B8D9BB2013B9AB27B685A85CA
:1028F00000BF0C37BD465DF8047B704780B584B0DF
:1029000000AF786039600023FB737B6893F83D303B
:10291000DBB203F02803282B27D17B681B685A6899
:102920007B681B6822F480625A603B689B0803F056
:102930000103002B01D10123FB733B68DB0903F08A
:102940000103002B03D17B68DB68BB8102E07B685D
:102950009B69BB817B68002283F83C20BA89FB7BA2
:1029600019467868FFF74AF90EE00023BB607B68E0
:102970001B685B69BB607B681B689B69BB60BB684D
:102980007B68002283F83C2000BF1037BD4680BD25
:1029900080B584B000AF78607B6893F83D30FB73FE
:1029A0007B681B685A687B681B6822F4E0625A6087
:1029B0000023BB607B681B685B69BB607B681B682E
:1029C0001A687B681B6842F001021A60BB687B686A
:1029D0001B681A687B681B6822F480621A607B6837
:1029E0001B685B6803F40063B3F5006F72D1FB7B77
:1029F000222B02D0FB7B2A2B35D17B689B6B1B687B
:102A00005B689AB27B685A857B685B8D9BB2002BB2
:102A100005D07B681B6C43F004027B681A647B68FA
:102A20001B685A687B681B6822F400625A607B68E6
:102A30009B6B1846FEF7DBFA0346012B49D07B68F7
:102A40009B6B694A1A657B689B6B1846FEF7ADFA6B
:102A50000346002B3DD07B689B6B1B6D7A68926BA5
:102A60001046984735E07B685B6B1B685B689AB2E1
:102A70007B685A857B685B8D9BB2002B05D07B6899
:102A80001B6C43F004027B681A647B681B685A68FD
:102A90007B681B6822F400625A607B685B6B184697
:102AA000FEF7A5FA0346012B14D07B685B6B4E4AF8
:102AB0001A657B685B6B1846FEF777FA0346002BB6
:102AC00008D07B685B6B1B6D7A68526B1046984729
:102AD00000E000BF7B685B8D9BB2002B3ED07B6823
:102AE0001B685B6903F00403042B12D17B681B682D
:102AF0001A697B685B6AD2B21A707B685B6A5A1C7F
:102B00007B685A627B685B8D9BB2013B9AB27B68A3
:102B10005A857B681B685B6903F04003402B12D128
:102B20007B681B681A697B685B6AD2B21A707B6823
:102B30005B6A5A1C7B685A627B685B8D9BB2013B67
:102B40009AB27B685A857B685B8D9BB2002B05D05F
:102B50007B681B6C43F004027B681A647B681B6C07
:102B6000002B03D0786800F0B3F839E0FB7B2A2B08
:102B700009D17B6800221A637B68282283F83D20F4
:102B80007868FFF731F87B6893F83D30DBB2282B8B
:102B900011D17B68154ADA627B6800221A637B6870
:102BA000202283F83D207B68002283F83E2078684D
:102BB000FFF732F814E07B681B6B222B02D0FB7B03
:102BC000222B0DD17B6800221A637B68202283F8B8
:102BD0003D207B68002283F83E207868FFF704F8E8
:102BE00000BF1037BD4680BD352F00080000FFFF35
:102BF00080B584B000AF78607B6893F83D30FB739C
:102C00007B68DB6ABB60BB68082B02D0BB68202BEB
:102C100029D1FB7B282B26D17B682C4ADA627B6882
:102C20001B685A687B681B6822F4E0625A607B6804
:102C30001B686FF480625A617B681B681A687B6846
:102C40001B6822F480621A607B6800221A637B682A
:102C5000202283F83D207B68002283F83E2078689C
:102C6000FEF7DAFF2EE0FB7B212B26D17B68174A8B
:102C7000DA627B6821221A637B68202283F83D2078
:102C80007B68002283F83E207B681B685A687B685B
:102C90001B6822F4E0625A607B681B686FF48062F4
:102CA0005A617B681B681A687B681B6822F4806223
:102CB0001A607868FEF78EFF04E07B681B686FF48B
:102CC00080625A6100BF1037BD4680BD0000FFFF23
:102CD00080B584B000AF78607B6893F83D30FB73BB
:102CE0007B6893F83E30BB73BB7B102B02D0BB7B61
:102CF000402B0AD1FB7B222B07D17B681B681A680B
:102D00007B681B6822F400621A60FB7B03F02803D7
:102D1000282B07D17B6800221A637B68282283F85E
:102D20003D2015E07B681B685B6803F40063B3F526
:102D3000006F0AD0FB7B602B07D07B68202283F8D2
:102D40003D207B68002283F83E207B6800221A63C6
:102D50007B681B685B6803F40063B3F5006F62D1A6
:102D60007B681B685A687B681B6822F400625A60A3
:102D70007B685B6B93F83530DBB2012B20D07B682E
:102D80005B6B6A4A1A657B685B6B1846FEF70DF948
:102D90000346002B00F089807B681B681A687B68FB
:102DA0001B6822F001021A607B68202283F83D2014
:102DB0007B685B6B1B6D7A68526B1046984774E0BA
:102DC0007B689B6B594A1A657B689B6B1846FEF7BC
:102DD000ECF80346002B68D07B681B685B6903F046
:102DE0004003402B0BD17B681B681A697B685B6AC8
:102DF000D2B21A707B685B6A5A1C7B685A627B6825
:102E00001B681A687B681B6822F001021A607B68E5
:102E1000202283F83D207B689B6B1B6D7A68926B48
:102E20001046984741E07B6893F83D30DBB2602B59
:102E300025D17B68202283F83D207B6800221A641C
:102E40007B681B685B6903F04003402B0BD17B68F8
:102E50001B681A697B685B6AD2B21A707B685B6A0E
:102E60005A1C7B685A627B681B681A687B681B68FF
:102E700022F001021A607868FEF7ECFE15E07B682C
:102E80001B685B6903F04003402B0BD17B681B6818
:102E90001A697B685B6AD2B21A707B685B6A5A1CDB
:102EA0007B685A627868FEF7CBFE7B681B6CBB6060
:102EB000BB6803F00103002B0ED1BB6803F00203D3
:102EC000002B09D1BB6803F00403002B04D1BB68BD
:102ED00003F00803002B07D07B681B685A687B68E7
:102EE0001B6822F4E0625A607B6893F83D30FB7304
:102EF0007B681B6C03F00403042B13D1FB7B282B92
:102F000010D17B680A4ADA627B6800221A637B6808
:102F1000202283F83D207B68002283F83E207868D9
:102F2000FEF77AFE00BF1037BD4680BD352F000882
:102F30000000FFFF80B586B000AF78600023FB6023
:102F40007B689B6B7B617B6993F83D30FB744B4BDB
:102F50001B68DB084A4AA2FB03231A0A13469B009C
:102F60001344DA00D31AFB60FB68002B06D17B699F
:102F70001B6C43F020027B691A640AE0FB68013B8A
:102F8000FB607B691B681B6803F40073B3F5007F6B
:102F9000EAD07B695B6B002B03D07B695B6B002203
:102FA000DA637B699B6B002B03D07B699B6B0022F0
:102FB000DA637B691B681A687B691B6822F480628C
:102FC0001A607B6900225A857B695B6B002B03D0FA
:102FD0007B695B6B00221A657B699B6B002B03D0BE
:102FE0007B699B6B00221A657B691B681A687B6989
:102FF0001B6822F001021A607B6993F83D30DBB256
:10300000602B0ED17B69202283F83D207B69002252
:1030100083F83E207B6900221A647869FEF71AFE65
:1030200027E0FB7C03F02803282B17D17B691B6862
:103030001A687B691B6842F001021A607B691B6891
:103040001A687B691B6842F480621A607B690022FF
:103050001A637B69282283F83D2007E07B692022E0
:1030600083F83D207B69002283F83E207869FEF7D3
:10307000E7FD00BF1837BD4680BD00BF000000203F
:1030800089B5F81480B485B000AF78600023FB6088
:10309000134B1B68DB08134AA2FB03231A0A1346CF
:1030A0009B001344FB60FB68013BFB60FB68002B4B
:1030B00007D17B681B6C43F020027B681A640123F4
:1030C00008E07B681B681B6803F40073B3F5007F9E
:1030D000E9D0002318461437BD465DF8047B7047DD
:1030E0000000002089B5F81480B483B000AF786088
:1030F0007B68DB6AB3F52A0F03D17B680122DA62B1
:1031000007E07B68DB6AB3F12A4F02D17B680822B3
:10311000DA6200BF0C37BD465DF8047B70470000E3
:1031200080B586B000AF78607B68002B01D10123A9
:1031300067E27B681B6803F00103002B75D0884BA6
:103140009B6803F00C03042B0CD0854B9B6803F0A9
:103150000C03082B12D1824B5B6803F48003B3F598
:10316000800F0BD17E4B1B6803F40033002B5BD028
:103170007B685B68002B57D1012342E27B685B6868
:10318000B3F5803F06D1764B1B68754A43F4803314
:1031900013601DE07B685B68B3F5A02F0CD1704B0A
:1031A0001B686F4A43F4802313606D4B1B686C4AA5
:1031B00043F4803313600BE0694B1B68684A23F4C7
:1031C00080331360664B1B68654A23F480231360C9
:1031D0007B685B68002B13D0FDF7A6FD386108E023
:1031E000FDF7A2FD02463B69D31A642B01D90323E4
:1031F00007E25B4B1B6803F40033002BF0D014E0B4
:10320000FDF792FD386108E0FDF78EFD02463B694F
:10321000D31A642B01D90323F3E1514B1B6803F448
:103220000033002BF0D100E000BF7B681B6803F087
:103230000203002B63D04A4B9B6803F00C03002B66
:103240000BD0474B9B6803F00C03082B1CD1444B5D
:103250005B6803F48003002B16D1414B1B6803F01D
:103260000203002B05D07B68DB68012B01D0012312
:10327000C7E13B4B1B6823F0F8027B681B69DB004E
:10328000374913430B603AE07B68DB68002B20D0A2
:10329000344B01221A60FDF747FD386108E0FDF765
:1032A00043FD02463B69D31A022B01D90323A8E14F
:1032B0002B4B1B6803F00203002BF0D0284B1B683C
:1032C00023F0F8027B681B69DB00254913430B6080
:1032D00015E0244B00221A60FDF726FD386108E056
:1032E000FDF722FD02463B69D31A022B01D90323C5
:1032F00087E11B4B1B6803F00203002BF0D17B68B6
:103300001B6803F00803002B36D07B685B69002B39
:1033100016D0154B01221A60FDF706FD386108E052
:10332000FDF702FD02463B69D31A022B01D90323A4
:1033300067E10B4B5B6F03F00203002BF0D01BE047
:10334000094B00221A60FDF7EFFC38610EE0FDF733
:10335000EBFC02463B69D31A022B07D9032350E149
:103360000038024000004742800E4742884B5B6FA6
:1033700003F00203002BEAD17B681B6803F004030F
:10338000002B00F097800023FB75814B1B6C03F032
:103390008053002B0FD10023BB607D4B1B6C7C4AFC
:1033A00043F0805313647A4B1B6C03F08053BB6073
:1033B000BB680123FB75774B1B6803F48073002BFC
:1033C00018D1744B1B68734A43F480731360FDF784
:1033D000ABFC386108E0FDF7A7FC02463B69D31A55
:1033E000022B01D903230CE16A4B1B6803F48073A1
:1033F000002BF0D07B689B68012B06D1644B1B6FC0
:10340000634A43F0010313671CE07B689B68052B4C
:103410000CD15F4B1B6F5E4A43F0040313675C4B98
:103420001B6F5B4A43F0010313670BE0584B1B6FA4
:10343000574A23F001031367554B1B6F544A23F07F
:10344000040313677B689B68002B15D0FDF76CFCA9
:1034500038610AE0FDF768FC02463B69D31A41F285
:103460008832934201D90323CBE0494B1B6F03F011
:103470000203002BEED014E0FDF756FC38610AE0A1
:10348000FDF752FC02463B69D31A41F2883293425F
:1034900001D90323B5E03E4B1B6F03F00203002B61
:1034A000EED1FB7D012B05D1394B1B6C384A23F043
:1034B000805313647B689B69002B00F0A180344B20
:1034C0009B6803F00C03082B5CD07B689B69022B84
:1034D00041D1314B00221A60FDF726FC386108E02B
:1034E000FDF722FC02463B69D31A022B01D90323C4
:1034F00087E0274B1B6803F00073002BF0D17B683B
:10350000DA697B681B6A1A437B685B6A9B011A4312
:103510007B689B6A5B08013B1B041A437B68DB6A80
:103520001B061B4913434B601B4B01221A60FDF71E
:10353000FBFB386108E0FDF7F7FB02463B69D31A55
:10354000022B01D903235CE0114B1B6803F00073CD
:10355000002BF0D054E0104B00221A60FDF7E4FB82
:10356000386108E0FDF7E0FB02463B69D31A022B05
:1035700001D9032345E0064B1B6803F00073002BC1
:10358000F0D13DE07B689B69012B07D1012338E036
:103590000038024000700040600047421B4B5B68EF
:1035A000FB607B689B69012B28D0FB6803F48002D9
:1035B0007B68DB699A4221D1FB6803F03F027B689C
:1035C0001B6A9A421AD1FA6847F6C07313407A68A8
:1035D000526A9201934211D1FB6803F440327B6836
:1035E0009B6A5B08013B1B049A4207D1FB6803F00E
:1035F00070627B68DB6A1B069A4201D0012300E0FF
:10360000002318461837BD4680BD00BF0038024071
:1036100080B584B000AF786039607B68002B01D141
:103620000123CCE0684B1B6803F007033A689A4219
:103630000CD9654B3A68D2B21A70634B1B6803F021
:1036400007033A689A4201D00123B8E07B681B68FF
:1036500003F00203002B20D07B681B6803F00403F7
:10366000002B05D0594B9B68584A43F4E0539360B4
:103670007B681B6803F00803002B05D0534B9B6845
:10368000524A43F460439360504B9B6823F0F0022E
:103690007B689B684D4913438B607B681B6803F014
:1036A0000103002B44D07B685B68012B07D1474B9B
:1036B0001B6803F40033002B19D101237FE07B68E2
:1036C0005B68022B03D07B685B68032B07D13F4B01
:1036D0001B6803F00073002B09D101236FE03B4B03
:1036E0001B6803F00203002B01D1012367E0374B75
:1036F0009B6823F003027B685B68344913438B604B
:10370000FDF712FBF8600AE0FDF70EFB0246FB68CE
:10371000D31A41F28832934201D903234FE02B4B55
:103720009B6803F00C027B685B689B009A42EBD1BC
:10373000254B1B6803F007033A689A420CD2224BD0
:103740003A68D2B21A70204B1B6803F007033A683C
:103750009A4201D0012332E07B681B6803F0040326
:10376000002B08D0194B9B6823F4E0527B68DB6880
:10377000164913438B607B681B6803F00803002B1A
:1037800009D0124B9B6823F460427B681B69DB0005
:103790000E4913438B6000F021F802460B4B9B68E7
:1037A0001B0903F00F030A49CB5C22FA03F3094A11
:1037B0001360094B1B681846FDF772FA0023184680
:1037C0001037BD4680BD00BF003C024000380240BB
:1037D0008049000800000020040000202DE9B04FBF
:1037E00090B000AF00237B630023FB6300233B63A7
:1037F0000023BB63594B9B6803F00C03082B0DD0CF
:10380000082B00F2A180002B02D0042B03D09BE0F8
:10381000534BBB639BE0534BBB6398E04F4B5B68E0
:1038200003F03F037B634D4B5B6803F48003002B85
:1038300028D04A4B5B689B0900223B627A623B6A54
:10384000C3F308000021474B03FB01F2002300FBF8
:1038500003F31344434AA0FB0212FA620A46BA6217
:10386000FA6A1344FB627B6B0022BB61FA61D7E901
:103870000623D7E90A01FCF7FBFC02460B46134678
:10388000FB6353E0354B5B689B0900223B617A6127
:103890003B69C3F3080A4FF0000B52465B464FF0FA
:1038A00000004FF00001590141EAD2615001024687
:1038B0000B46B2EB0A0863EB0B094FF000024FF026
:1038C00000034FEA891343EA98634FEA8812B2EB88
:1038D000080463EB09054FF000024FF00003EB0012
:1038E00043EA5473E20014461D4614EB0A033B609E
:1038F00045EB0B037B604FF000024FF00003D7E96C
:10390000004529468B02214643EA915321468A020B
:10391000104619467B6B0022BB60FA60D7E9022390
:10392000FCF7A6FC02460B461346FB630B4B5B6899
:103930001B0C03F0030301335B003B63FA6B3B6B2F
:10394000B2FBF3F3BB6302E0054BBB6300BFBB6B91
:1039500018464037BD46BDE8B08F00BF0038024072
:103960000024F40040787D0180B400AF034B1B6855
:103970001846BD465DF8047B704700BF000000207C
:1039800080B500AFFFF7F0FF0246054B9B689B0A2E
:1039900003F007030349CB5C22FA03F3184680BD0A
:1039A0000038024090490008014B1868704700BF7A
:1039B0000C00002070B50D4D0D4C641BA4100026AA
:1039C000A64209D10B4D0C4C00F0AEFF641BA410B5
:1039D0000026A64205D170BD55F8043B9847013634
:1039E000EEE755F8043B98470136F2E7384A0008FD
:1039F000384A0008384A00083C4A00080244034696
:103A0000934200D1704703F8011BF9E70FB40A4B4A
:103A100013B51C6824B1A36913B9204600F066F8F9
:103A200005AB049AA1680193204600F0BDF902B0ED
:103A3000BDE8104004B070470C000020002310B512
:103A40000446C0E90033C0E90433836081814366E2
:103A5000C2818361194608225C30FFF7CFFF054B16
:103A60006362054BA362054BE362054B246223634B
:103A700010BD00BF5143000873430008AB4300086A
:103A8000CF430008014900F0AFB800BFA9460008C5
:103A900070B568224D1E55430E4605F1740100F0C5
:103AA000E5F8044640B10021C0E900160C30A060E2
:103AB00005F16802FFF7A2FF204670BD014800F043
:103AC000B3B800BFF9000020014800F0AEB800BF55
:103AD000F9000020014800F0A7B800BFFA0000205C
:103AE000014800F0A2B800BFFA00002010B504465B
:103AF000FFF7F0FFA3691BB1BDE81040FFF7F0BF6F
:103B0000C4E912332365134B134A1B68A262A34214
:103B100004BF0123A361204600F020F86060204626
:103B200000F01CF8A060204600F018F80022E060C9
:103B300004216068FFF782FFA06801220921FFF7D6
:103B40007DFFE06802221221FFF778FF0123A361C5
:103B5000D2E700BF98490008853A0008F8B5074643
:103B6000FFF7ACFF1E4B1E68B36913B93046FFF771
:103B7000BDFF4836D6E90134013B03D533680BB3AA
:103B80003668F7E7B4F90C50D5B9164BE36004F189
:103B90005800656600F047F8FFF796FFC4E9015545
:103BA000C4E904552560A5610822294604F15C009A
:103BB000FFF724FFC4E90D55C4E912552046F8BDAE
:103BC0006834D9E704213846FFF762FF04463060C5
:103BD0000028D5D1FFF778FF0C233B60EEE700BF4C
:103BE000984900080100FFFF2DE9F8430646884682
:103BF00000F148040027D4E90195B9F1010905D580
:103C00002468002CF7D13846BDE8F883AB89012B36
:103C100007D9B5F90E30013303D029463046C047E5
:103C200007436835E9E770477047704770B50E4E37
:103C30000C463168054611B900F07AFB3060214628
:103C4000284600F075FB431C0AD0C41C24F0030472
:103C5000A04207D0211A284600F06AFB013001D1AA
:103C60004FF0FF34204670BD000100202DE9F041E7
:103C7000CD1C25F0030508350C2D38BF0C25002D73
:103C8000074601DBA94205D90C233B6000263046DC
:103C9000BDE8F0812E4E00F0BBFD33681C4634BBFE
:103CA00029463846FFF7C2FF431C04464DD134680D
:103CB0002646002E40D123683146384604EB0308DF
:103CC00000F036FB80453AD1216803356D1A25F0A6
:103CD000030508350C2D38BF0C2529463846FFF75B
:103CE000A5FF01302BD023682B4423600EE022680F
:103CF000521B1ED40B2A16D96119A342256018BF86
:103D00005960636808BF316062514B60384604F106
:103D10000B0600F083FD26F00706231DF21AB6D02D
:103D20009B1BA350B3E76268A3420CBF32605A608A
:103D3000ECE723466468B2E734467668B9E70C23BB
:103D40003B60384600F06AFDA1E72560DEE700BF72
:103D5000FC0000209368013B002B10B4936008DA4C
:103D60009469A34201DB0A2903D15DF8044B00F0FA
:103D700033BB1368581C1060197008465DF8044B7B
:103D80007047F8B506460F461446D518AC4201D127
:103D9000002007E014F8011B3A463046FFF7DAFF2F
:103DA000431CF3D1F8BD00002DE9F04F0D469DB046
:103DB00014469846064618B183690BB9FFF796FE7C
:103DC000894B9D421BD175686B6ED90705D4AB89B1
:103DD0009A0502D4A86DFFF727FFAB891B0701D511
:103DE0002B69EBB92946304600F05AFBC0B16B6E27
:103DF000DC070ED54FF0FF301DB0BDE8F08F7B4BD8
:103E00009D4201D1B568DFE7794B9D4208BFF56857
:103E1000DAE7AB899805EDD4A86DFFF706FFE9E76F
:103E20000023099320238DF82930CDF80C8030230E
:103E3000DFF8C0818DF82A304FF0010923469A46F9
:103E400013F8012B0AB1252AF9D1BAEB040B0BD0D8
:103E50005B46224629463046FFF793FF013000F0CB
:103E6000AA80099A5A4409929AF80030002B00F06F
:103E7000A28000234FF0FF32CDE905230AF1010AA9
:103E8000049307938DF853301A935446052214F87F
:103E9000011B5848FCF79CF9049AD8B9D10644BFD5
:103EA00020238DF85330130744BF2B238DF8533054
:103EB0009AF800302A2B15D0079A544600204FF06C
:103EC0000A0C214611F8013B303B092B4ED9B0B109
:103ED000079214E0A0EB080309FA03F313430493D9
:103EE000A246D2E7039B191D1B680391002BBBBFA1
:103EF0005B4242F0020207930793B8BF0492237813
:103F00002E2B0CD163782A2B35D1039B1A1D1B68ED
:103F10000392002BB8BF4FF0FF3302340593DFF854
:103F2000E4A0217803225046FCF752F940B1402327
:103F3000A0EB0A0003FA00F0049B0343013404934E
:103F400014F8011B2C488DF828100622FCF740F9C4
:103F500000283FD0294B1BBB039B073323F00703EB
:103F600008330393099B3B44099367E70CFB023238
:103F70000C460120A5E700230134059319464FF0B4
:103F80000A0C204610F8012B303A092A03D9002BDD
:103F9000C5D00591C3E70CFB012104460123F0E7DE
:103FA00003AB00932A46164B04A93046AFF30080BA
:103FB0000746781CD6D16B6ED90705D4AB899A0514
:103FC00002D4A86DFFF731FEAB895B063FF512AF57
:103FD000099811E703AB00932A46094B04A9304620
:103FE00000F080F8E4E700BFBC490008DC490008A5
:103FF0009C490008FC490008064A0008000000002F
:10400000833D0008024A00082DE9F047164699460C
:104010008A680B69DDF820809342B8BF134633608D
:1040200091F8432007460C460AB1013333602368F8
:10403000990642BF336802333360256815F00605E0
:1040400006D104F1190AE36832689B1AAB4226DCF8
:1040500094F84320131E226818BF012392062BD424
:1040600004F1430249463846C04701301ED0236858
:10407000E568326803F00603042B08BFAD1AA36895
:1040800022690CBF25EAE57500259342C4BF9B1A3F
:10409000ED1800261A34B5421AD1002008E0012399
:1040A000524649463846C047013003D14FF0FF30F1
:1040B000BDE8F0870135C6E7E1185A1C302081F8C9
:1040C0004300224494F8451082F843100233C7E7B6
:1040D0000123224649463846C0470130E6D0013622
:1040E000D9E700002DE9FF470F7E0C9D782F914600
:1040F00080460C469A4601F1430207D8622F0AD83F
:10410000002F00F0D880582F00F0A38004F1420562
:1041100084F842703AE0A7F16303152BF6D801A1A9
:1041200051F823F07D410008914100080D4100083D
:104130000D4100080D4100080D41000891410008A3
:104140000D4100080D4100080D4100080D41000817
:104150009D420008C14100087F4200080D4100084F
:104160000D410008BF4200080D410008C141000890
:104170000D4100080D410008874200082B681A1DF8
:104180001B682A6004F1420584F842300123A3E051
:1041900020682968060601F104030AD50E682B6021
:1041A000002E03DA2D23764284F843305E480A233A
:1041B00019E00E682B6010F0400F18BF36B2EFE721
:1041C0002B682068191D2960010601D51E6802E0D0
:1041D0004606FBD51E8854486F2F0CBF08230A23C0
:1041E000002184F843106568A560002DA2BF2168F6
:1041F00021F0040121600EB9002D4DD01546B6FB0B
:10420000F3F103FB1167C75D05F8017D3746BB423B
:104210000E46F4D9082B0BD12368DE0708D5236995
:1042200061689942DEBF302305F8013C05F1FF3596
:10423000521B2261CDF800A04B4603AA21464046FE
:10424000FFF7E2FE01304CD14FF0FF3004B0BDE883
:10425000F087354881F845702968236851F8046B68
:1042600029601D0614D5DF0744BF43F020032360F7
:104270001EB9236823F0200323601023B0E72368CE
:1042800043F0200323607823284884F84530E3E78F
:10429000590648BFB6B2E6E71546BBE72B68266865
:1042A0006169181D286035061B6801D5196002E098
:1042B0007006FBD51980002323611546BAE72B68E9
:1042C0001A1D2A601D68626800212846FBF780FFDE
:1042D00008B1401B606063682361002384F84330A9
:1042E000A8E723692A4649464046D0470130ABD06B
:1042F00023689B0713D4E068039B9842B8BF184615
:10430000A4E70123324649464046D04701309BD0BE
:104310000135E36803995B1AAB42F2DCEBE7002559
:1043200004F11906F5E700BF0D4A00081E4A00080F
:1043300038B5064D0023044608462B60FCF71CFCEC
:10434000431C02D12B6803B1236038BD0401002057
:1043500010B50C46B1F90E1000F0B2FA0028ABBF50
:10436000636DA3891B1823F48053ACBF6365A381DD
:1043700010BD2DE9F0411F468B89DB0505460C4633
:10438000164605D5B1F90E100223002200F0C8F937
:10439000A389B4F90E1023F48053A38132463B461F
:1043A0002846BDE8F04100F069B810B50C46B1F9F7
:1043B0000E1000F0B5F9431CA38915BF606523F406
:1043C000805343F48053A38118BFA38110BDB1F97A
:1043D0000E1000F0D3B80000F8B50E46144605469E
:1043E00018B183690BB9FFF781FB214B9C422BD19C
:1043F0006C68A369A360A3891A072FD523696BB3DF
:1044000023692068C01A6369F6B28342374604DC28
:104410002146284600F048F930BBA368013BA36061
:1044200023685A1C22601E7063690130834204D0E5
:10443000A389DB0706D50A2E04D12146284600F0C1
:1044400033F988B93846F8BD0A4B9C4201D1AC68B3
:10445000CFE7094B9C4208BFEC68CAE721462846D3
:1044600000F01EF80028CBD04FF0FF37EAE700BF7E
:10447000BC490008DC4900089C49000838B5074DD4
:1044800004460846114600222A601A46FCF742FA02
:10449000431C02D12B6803B1236038BD0401002006
:1044A000324B70B51D6806460C4625B1AB6913B991
:1044B0002846FFF71BFB2E4B9C420FD16C68A3894B
:1044C000B4F90C2019072CD4DD0611D4092333606C
:1044D00042F04003A3814FF0FF303EE0254B9C4269
:1044E00001D1AC68EBE7244B9C4208BFEC68E6E7DF
:1044F000580712D5616B41B104F14403994202D0CF
:10450000304600F091F900236363A38923F024036C
:10451000A3810023636023692360A38943F0080318
:10452000A38123694BB9A38903F42073B3F5007FFA
:1045300003D02146304600F02BF9A089B4F90C20B5
:1045400010F001030AD00023A36063695B42A361FA
:10455000236943B910F08000BAD170BD810758BFFC
:104560006369A360F4E70020F7E700BF0C000020B8
:10457000BC490008DC4900089C49000838B5064DD4
:104580000023044608462B60FCF7C1FA431C02D105
:104590002B6803B1236038BD040100208A892DE90E
:1045A000F041054610070C4658D44B68002B05DC3B
:1045B0000B6C002B02DC0020BDE8F081E66A002EC7
:1045C000F9D0002312F480522F682B6032D0606D36
:1045D000A3895A0705D56368C01A636B0BB1236CB6
:1045E000C01A00230246E66A216A2846B047431CE7
:1045F000A38906D129681D292CD82A4ACA40D60782
:1046000028D500226260D9042269226004D5421CA8
:1046100001D12B6803B96065616B2F600029CAD096
:1046200004F14403994202D0284600F0FDF800202E
:104630006063C1E7216A01232846B047411CC7D106
:104640002B68002BC4D01D2B01D0162B01D12F605D
:10465000B1E7A38943F04003A381ADE70F69002FC1
:10466000A9D093070E6808BF4B690F6018BF0023DD
:10467000A6EB07088B60B8F1000F9CDD216AA66AE3
:1046800043463A462846B047002806DCA38943F053
:104690004003A3814FF0FF308EE70744A8EB0008EA
:1046A000E9E700BF0100402038B50B6905460C461C
:1046B00013B90025284638BD18B183690BB9FFF737
:1046C00015FA144B9C421BD16C68B4F90C30002BCA
:1046D000EFD0626ED00704D4990502D4A06DFFF725
:1046E000A3FA28462146FFF759FF636EDA0705460D
:1046F000E0D4A3899B05DDD4A06DFFF796FAD9E736
:10470000054B9C4201D1AC68DFE7044B9C4208BFDB
:10471000EC68DAE7BC490008DC4900089C4900085D
:1047200038B5074D04460846114600222A601A464D
:10473000FCF714FA431C02D12B6803B1236038BD87
:104740000401002070B50E46B1F90E10002996B094
:1047500014461D4608DAB6F90C3000222A601A0603
:1047600010D44FF480630EE06A4600F0BBF80028D6
:10477000F1DB019A02F47042A2F500535A425A4109
:104780002A60EEE740230020236016B070BD0000D1
:104790008B8973B59D0706460C4607D504F1470380
:1047A000236023610123636102B070BD01AB6A46DF
:1047B000FFF7C8FF009905463046FFF757FA48B99A
:1047C000B4F90C309A05EFD423F0030343F002034D
:1047D000A381E3E70D4BB362A389206043F080031C
:1047E000A381009B6361019B20615BB1B4F90E1052
:1047F000304600F089F828B1A38923F0030343F081
:104800000103A381A0890543A581CDE7853A00086E
:104810000148FFF709BA00BFF80000200148FFF780
:1048200004BA00BFF800002037B5002944D051F881
:10483000043C0190002BA1F10404B8BFE418FFF779
:10484000E7FF1E4A0198136833B96360146003B030
:10485000BDE83040FFF7E2BFA34208D925686119DF
:104860008B4201BF19685B6849192160EDE71A4660
:104870005B680BB1A342FAD911685518A5420BD158
:10488000246821445418A3421160E0D11C685B687D
:10489000536021441160DAE702D90C230360D6E7A4
:1048A000256861198B4204BF19685B68636004BFA7
:1048B000491921605460CAE703B030BDFC000020F4
:1048C00038B5074D04460846114600222A601A46AC
:1048D000FCF700F9431C02D12B6803B1236038BDFB
:1048E0000401002038B5074D002304460846114650
:1048F0002B60FCF718F9431C02D12B6803B123602D
:1049000038BD00BF0401002038B5064D0023044621
:1049100008462B60FCF717F9431C02D12B6803B142
:10492000236038BD04010020F8B500BFF8BC08BC06
:104930009E467047F8B500BFF8BC08BC9E4670475D
:1049400047696F3A202564202D20706875743A20DD
:104950002564202D20676961793A202564202D2067
:104960006E6761793A202564202D207468616E6736
:104970003A202564202D206E616D3A2025640A00BE
:1049800000000000000000000102030406070809FF
:1049900000000000010203041000002000000000DD
:1049A0000000000000000000000000000000000007
:1049B00000000000000000000000000000000000F7
:1049C00000000000000000000000000000000000E7
:1049D00000000000000000000000000000000000D7
:1049E00000000000000000000000000000000000C7
:1049F000000000000000000000000000232D302B0C
:104A00002000686C4C0065666745464700303132CF
:104A10003334353637383941424344454600303126
:104A20003233343536373839616263646566000085
:084A300070B8FF7F01000000D7
:044A3800B5010008BC
:044A3C0091010008DC
:104A40000024F4001000000001000000100000200D
:104A500000000000BC490008DC4900089C4900082F
:104A60000000000000000000000000000000000046
:104A70000000000000000000000000000000000036
:104A80000000000000000000000000000000000026
:104A90000000000000000000000000000000000016
:104AA0000000000000000000000000000000000006
:0400000508000C09DA
:00000001FF
